{
  "contractName": "Beth",
  "abi": [
    {
      "constant": true,
      "inputs": [
        {
          "name": "",
          "type": "uint256"
        }
      ],
      "name": "bets",
      "outputs": [
        {
          "name": "description",
          "type": "string"
        }
      ],
      "payable": false,
      "stateMutability": "view",
      "type": "function"
    },
    {
      "constant": false,
      "inputs": [],
      "name": "renounceOwnership",
      "outputs": [],
      "payable": false,
      "stateMutability": "nonpayable",
      "type": "function"
    },
    {
      "constant": true,
      "inputs": [],
      "name": "owner",
      "outputs": [
        {
          "name": "",
          "type": "address"
        }
      ],
      "payable": false,
      "stateMutability": "view",
      "type": "function"
    },
    {
      "constant": false,
      "inputs": [
        {
          "name": "_newOwner",
          "type": "address"
        }
      ],
      "name": "transferOwnership",
      "outputs": [],
      "payable": false,
      "stateMutability": "nonpayable",
      "type": "function"
    },
    {
      "anonymous": false,
      "inputs": [
        {
          "indexed": true,
          "name": "previousOwner",
          "type": "address"
        }
      ],
      "name": "OwnershipRenounced",
      "type": "event"
    },
    {
      "anonymous": false,
      "inputs": [
        {
          "indexed": true,
          "name": "previousOwner",
          "type": "address"
        },
        {
          "indexed": true,
          "name": "newOwner",
          "type": "address"
        }
      ],
      "name": "OwnershipTransferred",
      "type": "event"
    },
    {
      "constant": false,
      "inputs": [
        {
          "name": "description",
          "type": "string"
        },
        {
          "name": "options",
          "type": "bytes32[]"
        }
      ],
      "name": "createBet",
      "outputs": [
        {
          "name": "",
          "type": "uint256"
        }
      ],
      "payable": false,
      "stateMutability": "nonpayable",
      "type": "function"
    },
    {
      "constant": true,
      "inputs": [
        {
          "name": "index",
          "type": "uint256"
        }
      ],
      "name": "getBet",
      "outputs": [
        {
          "name": "",
          "type": "string"
        },
        {
          "name": "",
          "type": "bytes32[]"
        }
      ],
      "payable": false,
      "stateMutability": "view",
      "type": "function"
    },
    {
      "constant": true,
      "inputs": [],
      "name": "getBetCount",
      "outputs": [
        {
          "name": "",
          "type": "uint256"
        }
      ],
      "payable": false,
      "stateMutability": "view",
      "type": "function"
    }
  ],
  "bytecode": "0x6080604052336000806101000a81548173ffffffffffffffffffffffffffffffffffffffff021916908373ffffffffffffffffffffffffffffffffffffffff160217905550610d1e806100536000396000f300608060405260043610610083576000357c0100000000000000000000000000000000000000000000000000000000900463ffffffff168063061e494f1461008857806322af00fa146100c65780636fbf16a914610103578063715018a6146101405780638da5cb5b14610157578063b93dab0b14610182578063f2fde38b146101ad575b600080fd5b34801561009457600080fd5b506100af60048036036100aa91908101906109c1565b6101d6565b6040516100bd929190610b1b565b60405180910390f35b3480156100d257600080fd5b506100ed60048036036100e891908101906109c1565b610314565b6040516100fa9190610af9565b60405180910390f35b34801561010f57600080fd5b5061012a60048036036101259190810190610955565b6103d9565b6040516101379190610b52565b60405180910390f35b34801561014c57600080fd5b50610155610463565b005b34801561016357600080fd5b5061016c610565565b6040516101799190610ade565b60405180910390f35b34801561018e57600080fd5b5061019761058a565b6040516101a49190610b52565b60405180910390f35b3480156101b957600080fd5b506101d460048036036101cf919081019061092c565b610597565b005b6060806001838154811015156101e857fe5b906000526020600020906002020160000160018481548110151561020857fe5b9060005260206000209060020201600101818054600181600116156101000203166002900480601f0160208091040260200160405190810160405280929190818152602001828054600181600116156101000203166002900480156102ae5780601f10610283576101008083540402835291602001916102ae565b820191906000526020600020905b81548152906001019060200180831161029157829003601f168201915b505050505091508080548060200260200160405190810160405280929190818152602001828054801561030457602002820191906000526020600020905b815460001916815260200190600101908083116102ec575b5050505050905091509150915091565b60018181548110151561032357fe5b9060005260206000209060020201600091509050806000018054600181600116156101000203166002900480601f0160208091040260200160405190810160405280929190818152602001828054600181600116156101000203166002900480156103cf5780601f106103a4576101008083540402835291602001916103cf565b820191906000526020600020905b8154815290600101906020018083116103b257829003601f168201915b5050505050905081565b600060018060408051908101604052808681526020018581525090806001815401808255809150509060018203906000526020600020906002020160009091929091909150600082015181600001908051906020019061043a9291906106f8565b506020820151816001019080519060200190610457929190610778565b50505003905092915050565b6000809054906101000a900473ffffffffffffffffffffffffffffffffffffffff1673ffffffffffffffffffffffffffffffffffffffff163373ffffffffffffffffffffffffffffffffffffffff161415156104be57600080fd5b6000809054906101000a900473ffffffffffffffffffffffffffffffffffffffff1673ffffffffffffffffffffffffffffffffffffffff167ff8df31144d9c2f0f6b59d69b8b98abd5459d07f2742c4df920b25aae33c6482060405160405180910390a260008060006101000a81548173ffffffffffffffffffffffffffffffffffffffff021916908373ffffffffffffffffffffffffffffffffffffffff160217905550565b6000809054906101000a900473ffffffffffffffffffffffffffffffffffffffff1681565b6000600180549050905090565b6000809054906101000a900473ffffffffffffffffffffffffffffffffffffffff1673ffffffffffffffffffffffffffffffffffffffff163373ffffffffffffffffffffffffffffffffffffffff161415156105f257600080fd5b6105fb816105fe565b50565b600073ffffffffffffffffffffffffffffffffffffffff168173ffffffffffffffffffffffffffffffffffffffff161415151561063a57600080fd5b8073ffffffffffffffffffffffffffffffffffffffff166000809054906101000a900473ffffffffffffffffffffffffffffffffffffffff1673ffffffffffffffffffffffffffffffffffffffff167f8be0079c531659141344cd1fd0a4f28419497f9722a3daafe3b4186f6b6457e060405160405180910390a3806000806101000a81548173ffffffffffffffffffffffffffffffffffffffff021916908373ffffffffffffffffffffffffffffffffffffffff16021790555050565b828054600181600116156101000203166002900490600052602060002090601f016020900481019282601f1061073957805160ff1916838001178555610767565b82800160010185558215610767579182015b8281111561076657825182559160200191906001019061074b565b5b50905061077491906107cb565b5090565b8280548282559060005260206000209081019282156107ba579160200282015b828111156107b9578251829060001916905591602001919060010190610798565b5b5090506107c791906107f0565b5090565b6107ed91905b808211156107e95760008160009055506001016107d1565b5090565b90565b61081291905b8082111561080e5760008160009055506001016107f6565b5090565b90565b60006108218235610c5d565b905092915050565b600082601f830112151561083c57600080fd5b813561084f61084a82610b9a565b610b6d565b9150818183526020840193506020810190508385602084028201111561087457600080fd5b60005b838110156108a4578161088a88826108ae565b845260208401935060208301925050600181019050610877565b5050505092915050565b60006108ba8235610c7d565b905092915050565b600082601f83011215156108d557600080fd5b81356108e86108e382610bc2565b610b6d565b9150808252602083016020830185838301111561090457600080fd5b61090f838284610c91565b50505092915050565b60006109248235610c87565b905092915050565b60006020828403121561093e57600080fd5b600061094c84828501610815565b91505092915050565b6000806040838503121561096857600080fd5b600083013567ffffffffffffffff81111561098257600080fd5b61098e858286016108c2565b925050602083013567ffffffffffffffff8111156109ab57600080fd5b6109b785828601610829565b9150509250929050565b6000602082840312156109d357600080fd5b60006109e184828501610918565b91505092915050565b6109f381610c29565b82525050565b6000610a0482610bfb565b808452602084019350610a1683610bee565b60005b82811015610a4857610a2c868351610a54565b610a3582610c1c565b9150602086019550600181019050610a19565b50849250505092915050565b610a5d81610c49565b82525050565b6000610a6e82610c11565b808452610a82816020860160208601610ca0565b610a8b81610cd3565b602085010191505092915050565b6000610aa482610c06565b808452610ab8816020860160208601610ca0565b610ac181610cd3565b602085010191505092915050565b610ad881610c53565b82525050565b6000602082019050610af360008301846109ea565b92915050565b60006020820190508181036000830152610b138184610a99565b905092915050565b60006040820190508181036000830152610b358185610a63565b90508181036020830152610b4981846109f9565b90509392505050565b6000602082019050610b676000830184610acf565b92915050565b6000604051905081810181811067ffffffffffffffff82111715610b9057600080fd5b8060405250919050565b600067ffffffffffffffff821115610bb157600080fd5b602082029050602081019050919050565b600067ffffffffffffffff821115610bd957600080fd5b601f19601f8301169050602081019050919050565b6000602082019050919050565b600081519050919050565b600081519050919050565b600081519050919050565b6000602082019050919050565b600073ffffffffffffffffffffffffffffffffffffffff82169050919050565b6000819050919050565b6000819050919050565b600073ffffffffffffffffffffffffffffffffffffffff82169050919050565b6000819050919050565b6000819050919050565b82818337600083830152505050565b60005b83811015610cbe578082015181840152602081019050610ca3565b83811115610ccd576000848401525b50505050565b6000601f19601f83011690509190505600a265627a7a72305820cace261c229357f1473255d36e570d9b0d6da1fe84b89803ca43250a793bcd4c6c6578706572696d656e74616cf50037",
  "source": "pragma solidity ^0.4.24;\npragma experimental ABIEncoderV2;\n\nimport './Ownable.sol';\n\ncontract Beth is Ownable {\n  struct Bet {\n    string description;\n    bytes32[] options;\n  }\n\n  Bet[] public bets;\n\n  function createBet(string description, bytes32[] options) public returns(uint) {\n    return bets.push(Bet(description, options)) - 1;\n  }\n\n  function getBet(uint index) public constant returns(string, bytes32[]) {\n    return (bets[index].description, bets[index].options);\n  }\n\n  function getBetCount() public constant returns(uint) {\n    return bets.length;\n  }\n}\n",
  "sourcePath": "/Users/wojciechko/dev/react-app/contracts/Beth.sol",
  "compiler": {
    "name": "solc",
    "version": "0.4.24+commit.e67f0147.Emscripten.clang"
  },
  "schemaVersion": "2.0.1",
  "updatedAt": "2018-08-24T11:42:07.803Z"
}