{
  "contractName": "Beth",
  "abi": [
    {
      "constant": true,
      "inputs": [
        {
          "name": "",
          "type": "uint256"
        }
      ],
      "name": "bets",
      "outputs": [
        {
          "name": "description",
          "type": "string"
        }
      ],
      "payable": false,
      "stateMutability": "view",
      "type": "function"
    },
    {
      "constant": false,
      "inputs": [],
      "name": "renounceOwnership",
      "outputs": [],
      "payable": false,
      "stateMutability": "nonpayable",
      "type": "function"
    },
    {
      "constant": true,
      "inputs": [],
      "name": "owner",
      "outputs": [
        {
          "name": "",
          "type": "address"
        }
      ],
      "payable": false,
      "stateMutability": "view",
      "type": "function"
    },
    {
      "constant": false,
      "inputs": [
        {
          "name": "_newOwner",
          "type": "address"
        }
      ],
      "name": "transferOwnership",
      "outputs": [],
      "payable": false,
      "stateMutability": "nonpayable",
      "type": "function"
    },
    {
      "anonymous": false,
      "inputs": [
        {
          "indexed": true,
          "name": "bet_id",
          "type": "uint256"
        },
        {
          "indexed": false,
          "name": "description",
          "type": "string"
        }
      ],
      "name": "NewBet",
      "type": "event"
    },
    {
      "anonymous": false,
      "inputs": [
        {
          "indexed": true,
          "name": "bet_id",
          "type": "uint256"
        },
        {
          "indexed": false,
          "name": "option_id",
          "type": "uint256"
        },
        {
          "indexed": false,
          "name": "value",
          "type": "uint256"
        }
      ],
      "name": "NewBetOnOption",
      "type": "event"
    },
    {
      "anonymous": false,
      "inputs": [
        {
          "indexed": true,
          "name": "previousOwner",
          "type": "address"
        }
      ],
      "name": "OwnershipRenounced",
      "type": "event"
    },
    {
      "anonymous": false,
      "inputs": [
        {
          "indexed": true,
          "name": "previousOwner",
          "type": "address"
        },
        {
          "indexed": true,
          "name": "newOwner",
          "type": "address"
        }
      ],
      "name": "OwnershipTransferred",
      "type": "event"
    },
    {
      "constant": false,
      "inputs": [
        {
          "name": "description",
          "type": "string"
        },
        {
          "name": "option_descriptions",
          "type": "bytes32[]"
        }
      ],
      "name": "createBet",
      "outputs": [],
      "payable": false,
      "stateMutability": "nonpayable",
      "type": "function"
    },
    {
      "constant": true,
      "inputs": [
        {
          "name": "index",
          "type": "uint256"
        }
      ],
      "name": "getBet",
      "outputs": [
        {
          "name": "",
          "type": "string"
        },
        {
          "name": "",
          "type": "bytes32[]"
        },
        {
          "name": "",
          "type": "uint256[]"
        }
      ],
      "payable": false,
      "stateMutability": "view",
      "type": "function"
    },
    {
      "constant": true,
      "inputs": [],
      "name": "getBetCount",
      "outputs": [
        {
          "name": "",
          "type": "uint256"
        }
      ],
      "payable": false,
      "stateMutability": "view",
      "type": "function"
    },
    {
      "constant": false,
      "inputs": [
        {
          "name": "bet_id",
          "type": "uint256"
        },
        {
          "name": "option_id",
          "type": "uint256"
        }
      ],
      "name": "betOnOption",
      "outputs": [],
      "payable": true,
      "stateMutability": "payable",
      "type": "function"
    }
  ],
  "bytecode": "0x6080604052336000806101000a81548173ffffffffffffffffffffffffffffffffffffffff021916908373ffffffffffffffffffffffffffffffffffffffff16021790555061123c806100536000396000f30060806040526004361061008e576000357c0100000000000000000000000000000000000000000000000000000000900463ffffffff168063061e494f1461009357806322af00fa146100d25780636fbf16a91461010f578063715018a6146101385780638da5cb5b1461014f578063b93dab0b1461017a578063cb66cf48146101a5578063f2fde38b146101c1575b600080fd5b34801561009f57600080fd5b506100ba60048036036100b59190810190610d2b565b6101ea565b6040516100c993929190610fa2565b60405180910390f35b3480156100de57600080fd5b506100f960048036036100f49190810190610d2b565b610401565b6040516101069190610f80565b60405180910390f35b34801561011b57600080fd5b5061013660048036036101319190810190610cbf565b6104c6565b005b34801561014457600080fd5b5061014d6105db565b005b34801561015b57600080fd5b506101646106dd565b6040516101719190610f65565b60405180910390f35b34801561018657600080fd5b5061018f610702565b60405161019c9190611010565b60405180910390f35b6101bf60048036036101ba9190810190610d54565b61070f565b005b3480156101cd57600080fd5b506101e860048036036101e39190810190610c96565b61083b565b005b606080606060008060608060008060008060018c81548110151561020a57fe5b9060005260206000209060020201975087600101805490509650866040519080825280602002602001820160405280156102535781602001602082028038833980820191505090505b509550866040519080825280602002602001820160405280156102855781602001602082028038833980820191505090505b509450600093505b8684101561034a5787600101848154811015156102a657fe5b9060005260206000209060030201925060009150600090505b82600101548410156102f557826002016000828152602001908152602001600020600101548201915080806001019150506102bf565b81858581518110151561030457fe5b90602001906020020181815250508260000154868581518110151561032557fe5b906020019060200201906000191690816000191681525050838060010194505061028d565b876000018686828054600181600116156101000203166002900480601f0160208091040260200160405190810160405280929190818152602001828054600181600116156101000203166002900480156103e55780601f106103ba576101008083540402835291602001916103e5565b820191906000526020600020905b8154815290600101906020018083116103c857829003601f168201915b505050505092509a509a509a5050505050505050509193909250565b60018181548110151561041057fe5b9060005260206000209060020201600091509050806000018054600181600116156101000203166002900480601f0160208091040260200160405190810160405280929190818152602001828054600181600116156101000203166002900480156104bc5780601f10610491576101008083540402835291602001916104bc565b820191906000526020600020905b81548152906001019060200180831161049f57829003601f168201915b5050505050905081565b6000806000806001805490509350600180548091906001016104e8919061099c565b506001848154811015156104f857fe5b90600052602060002090600202019250858360000190805190602001906105209291906109ce565b5084519150600090505b81811015610598578260010180548091906001016105489190610a4e565b50848181518110151561055757fe5b90602001906020020151836001018281548110151561057257fe5b90600052602060002090600302016000018160001916905550808060010191505061052a565b837f78dec4b80f5362604d1a50ade7d2f7591480b1a5fba359bc9122c8c5f3375e52846000016040516105cb9190610fee565b60405180910390a2505050505050565b6000809054906101000a900473ffffffffffffffffffffffffffffffffffffffff1673ffffffffffffffffffffffffffffffffffffffff163373ffffffffffffffffffffffffffffffffffffffff1614151561063657600080fd5b6000809054906101000a900473ffffffffffffffffffffffffffffffffffffffff1673ffffffffffffffffffffffffffffffffffffffff167ff8df31144d9c2f0f6b59d69b8b98abd5459d07f2742c4df920b25aae33c6482060405160405180910390a260008060006101000a81548173ffffffffffffffffffffffffffffffffffffffff021916908373ffffffffffffffffffffffffffffffffffffffff160217905550565b6000809054906101000a900473ffffffffffffffffffffffffffffffffffffffff1681565b6000600180549050905090565b60008060018481548110151561072157fe5b90600052602060002090600202016001018381548110151561073f57fe5b9060005260206000209060030201915060018260010160008154809291906001019190505503905060408051908101604052803373ffffffffffffffffffffffffffffffffffffffff1681526020013481525082600201600083815260200190815260200160002060008201518160000160006101000a81548173ffffffffffffffffffffffffffffffffffffffff021916908373ffffffffffffffffffffffffffffffffffffffff16021790555060208201518160010155905050837f6f534894a394d524f80b4a05d7da64fcbf40d829bd70fb814b188eebc6ef0700843460405161082d92919061102b565b60405180910390a250505050565b6000809054906101000a900473ffffffffffffffffffffffffffffffffffffffff1673ffffffffffffffffffffffffffffffffffffffff163373ffffffffffffffffffffffffffffffffffffffff1614151561089657600080fd5b61089f816108a2565b50565b600073ffffffffffffffffffffffffffffffffffffffff168173ffffffffffffffffffffffffffffffffffffffff16141515156108de57600080fd5b8073ffffffffffffffffffffffffffffffffffffffff166000809054906101000a900473ffffffffffffffffffffffffffffffffffffffff1673ffffffffffffffffffffffffffffffffffffffff167f8be0079c531659141344cd1fd0a4f28419497f9722a3daafe3b4186f6b6457e060405160405180910390a3806000806101000a81548173ffffffffffffffffffffffffffffffffffffffff021916908373ffffffffffffffffffffffffffffffffffffffff16021790555050565b8154818355818111156109c9576002028160020283600052602060002091820191016109c89190610a80565b5b505050565b828054600181600116156101000203166002900490600052602060002090601f016020900481019282601f10610a0f57805160ff1916838001178555610a3d565b82800160010185558215610a3d579182015b82811115610a3c578251825591602001919060010190610a21565b5b509050610a4a9190610abf565b5090565b815481835581811115610a7b57600302816003028360005260206000209182019101610a7a9190610ae4565b5b505050565b610abc91905b80821115610ab85760008082016000610a9f9190610b13565b600182016000610aaf9190610b5b565b50600201610a86565b5090565b90565b610ae191905b80821115610add576000816000905550600101610ac5565b5090565b90565b610b1091905b80821115610b0c57600080820160009055600182016000905550600301610aea565b5090565b90565b50805460018160011615610100020316600290046000825580601f10610b395750610b58565b601f016020900490600052602060002090810190610b579190610abf565b5b50565b5080546000825560030290600052602060002090810190610b7c9190610ae4565b50565b6000610b8b823561117b565b905092915050565b600082601f8301121515610ba657600080fd5b8135610bb9610bb482611081565b611054565b91508181835260208401935060208101905083856020840282011115610bde57600080fd5b60005b83811015610c0e5781610bf48882610c18565b845260208401935060208301925050600181019050610be1565b5050505092915050565b6000610c24823561119b565b905092915050565b600082601f8301121515610c3f57600080fd5b8135610c52610c4d826110a9565b611054565b91508082526020830160208301858383011115610c6e57600080fd5b610c798382846111af565b50505092915050565b6000610c8e82356111a5565b905092915050565b600060208284031215610ca857600080fd5b6000610cb684828501610b7f565b91505092915050565b60008060408385031215610cd257600080fd5b600083013567ffffffffffffffff811115610cec57600080fd5b610cf885828601610c2c565b925050602083013567ffffffffffffffff811115610d1557600080fd5b610d2185828601610b93565b9150509250929050565b600060208284031215610d3d57600080fd5b6000610d4b84828501610c82565b91505092915050565b60008060408385031215610d6757600080fd5b6000610d7585828601610c82565b9250506020610d8685828601610c82565b9150509250929050565b610d9981611147565b82525050565b6000610daa82611101565b808452602084019350610dbc836110d5565b60005b82811015610dee57610dd2868351610e55565b610ddb8261112d565b9150602086019550600181019050610dbf565b50849250505092915050565b6000610e058261110c565b808452602084019350610e17836110e2565b60005b82811015610e4957610e2d868351610f56565b610e368261113a565b9150602086019550600181019050610e1a565b50849250505092915050565b610e5e81611167565b82525050565b6000610e6f82611122565b808452610e838160208601602086016111be565b610e8c816111f1565b602085010191505092915050565b6000610ea582611117565b808452610eb98160208601602086016111be565b610ec2816111f1565b602085010191505092915050565b600081546001811660008114610eed5760018114610f0d57610f4e565b607f600283041680865260ff198316602087015260408601935050610f4e565b60028204808652602086019550610f23856110ef565b60005b82811015610f4557815481890152600182019150602081019050610f26565b80880195505050505b505092915050565b610f5f81611171565b82525050565b6000602082019050610f7a6000830184610d90565b92915050565b60006020820190508181036000830152610f9a8184610e9a565b905092915050565b60006060820190508181036000830152610fbc8186610e64565b90508181036020830152610fd08185610d9f565b90508181036040830152610fe48184610dfa565b9050949350505050565b600060208201905081810360008301526110088184610ed0565b905092915050565b60006020820190506110256000830184610f56565b92915050565b60006040820190506110406000830185610f56565b61104d6020830184610f56565b9392505050565b6000604051905081810181811067ffffffffffffffff8211171561107757600080fd5b8060405250919050565b600067ffffffffffffffff82111561109857600080fd5b602082029050602081019050919050565b600067ffffffffffffffff8211156110c057600080fd5b601f19601f8301169050602081019050919050565b6000602082019050919050565b6000602082019050919050565b60008160005260206000209050919050565b600081519050919050565b600081519050919050565b600081519050919050565b600081519050919050565b6000602082019050919050565b6000602082019050919050565b600073ffffffffffffffffffffffffffffffffffffffff82169050919050565b6000819050919050565b6000819050919050565b600073ffffffffffffffffffffffffffffffffffffffff82169050919050565b6000819050919050565b6000819050919050565b82818337600083830152505050565b60005b838110156111dc5780820151818401526020810190506111c1565b838111156111eb576000848401525b50505050565b6000601f19601f83011690509190505600a265627a7a723058204a7cb2bde793c1fc8815d008476605e854124fda6aafca86da06444a0c9343ef6c6578706572696d656e74616cf50037",
  "source": "pragma solidity ^0.4.24;\npragma experimental ABIEncoderV2;\n\nimport './Ownable.sol';\n\ncontract Beth is Ownable {\n  struct OptionValue {\n    address user;\n    uint amount;\n  }\n\n  struct Option {\n    bytes32 description;\n    uint valueCount;\n    mapping(uint => OptionValue) values;\n  }\n\n  struct Bet {\n    string description;\n    Option[] options;\n  }\n\n  Bet[] public bets;\n\n  event NewBet(\n    uint indexed bet_id,\n    string description\n  );\n\n  event NewBetOnOption(\n    uint indexed bet_id,\n    uint option_id,\n    uint value\n  );\n\n  function createBet(string description, bytes32[] option_descriptions) public {\n    uint bet_id= bets.length;\n    bets.length++;\n    Bet storage bet = bets[bet_id];\n\n    bet.description = description;\n\n    uint arrayLength = option_descriptions.length;\n    for (uint i=0; i < arrayLength; i++) {\n      bet.options.length++;\n      bet.options[i].description = option_descriptions[i];\n    }\n\n    emit NewBet(bet_id, bet.description);\n  }\n\n  function getBet(uint index) public constant returns(string, bytes32[], uint[]) {\n    Bet storage bet = bets[index];\n\n    uint optionsCount = bet.options.length;\n    bytes32[] memory options = new bytes32[](optionsCount);\n    uint[] memory values = new uint[](optionsCount);\n\n    for (uint i=0; i<optionsCount; i++) {\n      Option storage option = bet.options[i];\n\n      uint value = 0;\n      for (uint j=0; i<option.valueCount; j++) {\n        value += option.values[j].amount;\n      }\n\n      values[i] = value;\n      options[i] = option.description;\n    }\n    return (bet.description, options, values);\n  }\n\n  function getBetCount() public constant returns(uint) {\n    return bets.length;\n  }\n\n  function betOnOption(uint bet_id, uint option_id) public payable {\n    Option storage option = bets[bet_id].options[option_id];\n    uint value_index = option.valueCount++ - 1;\n    option.values[value_index] = OptionValue(msg.sender, msg.value);\n\n    emit NewBetOnOption(bet_id, option_id, msg.value);\n  }\n}\n",
  "sourcePath": "/Users/wojciechko/dev/react-app/contracts/Beth.sol",
  "compiler": {
    "name": "solc",
    "version": "0.4.24+commit.e67f0147.Emscripten.clang"
  },
  "schemaVersion": "2.0.1",
  "updatedAt": "2018-09-03T14:03:16.588Z"
}