{
  "contractName": "Beth",
  "abi": [
    {
      "constant": true,
      "inputs": [
        {
          "name": "",
          "type": "uint256"
        }
      ],
      "name": "bets",
      "outputs": [
        {
          "name": "description",
          "type": "string"
        }
      ],
      "payable": false,
      "stateMutability": "view",
      "type": "function"
    },
    {
      "constant": false,
      "inputs": [],
      "name": "renounceOwnership",
      "outputs": [],
      "payable": false,
      "stateMutability": "nonpayable",
      "type": "function"
    },
    {
      "constant": true,
      "inputs": [],
      "name": "owner",
      "outputs": [
        {
          "name": "",
          "type": "address"
        }
      ],
      "payable": false,
      "stateMutability": "view",
      "type": "function"
    },
    {
      "constant": false,
      "inputs": [
        {
          "name": "_newOwner",
          "type": "address"
        }
      ],
      "name": "transferOwnership",
      "outputs": [],
      "payable": false,
      "stateMutability": "nonpayable",
      "type": "function"
    },
    {
      "anonymous": false,
      "inputs": [
        {
          "indexed": true,
          "name": "previousOwner",
          "type": "address"
        }
      ],
      "name": "OwnershipRenounced",
      "type": "event"
    },
    {
      "anonymous": false,
      "inputs": [
        {
          "indexed": true,
          "name": "previousOwner",
          "type": "address"
        },
        {
          "indexed": true,
          "name": "newOwner",
          "type": "address"
        }
      ],
      "name": "OwnershipTransferred",
      "type": "event"
    },
    {
      "constant": false,
      "inputs": [
        {
          "name": "bet_id",
          "type": "uint256"
        },
        {
          "name": "option_id",
          "type": "uint256"
        }
      ],
      "name": "betOnOption",
      "outputs": [],
      "payable": true,
      "stateMutability": "payable",
      "type": "function"
    },
    {
      "constant": false,
      "inputs": [
        {
          "name": "description",
          "type": "string"
        },
        {
          "name": "option_descriptions",
          "type": "bytes32[]"
        }
      ],
      "name": "createBet",
      "outputs": [
        {
          "name": "",
          "type": "uint256"
        }
      ],
      "payable": false,
      "stateMutability": "nonpayable",
      "type": "function"
    },
    {
      "constant": true,
      "inputs": [
        {
          "name": "index",
          "type": "uint256"
        }
      ],
      "name": "getBet",
      "outputs": [
        {
          "name": "",
          "type": "string"
        },
        {
          "name": "",
          "type": "bytes32[]"
        }
      ],
      "payable": false,
      "stateMutability": "view",
      "type": "function"
    },
    {
      "constant": true,
      "inputs": [],
      "name": "getBetCount",
      "outputs": [
        {
          "name": "",
          "type": "uint256"
        }
      ],
      "payable": false,
      "stateMutability": "view",
      "type": "function"
    }
  ],
  "bytecode": "0x6080604052336000806101000a81548173ffffffffffffffffffffffffffffffffffffffff021916908373ffffffffffffffffffffffffffffffffffffffff160217905550610f43806100536000396000f30060806040526004361061008e576000357c0100000000000000000000000000000000000000000000000000000000900463ffffffff168063061e494f1461009357806322af00fa146100d15780636fbf16a91461010e578063715018a61461014b5780638da5cb5b14610162578063b93dab0b1461018d578063cb66cf48146101b8578063f2fde38b146101d4575b600080fd5b34801561009f57600080fd5b506100ba60048036036100b59190810190610baa565b6101fd565b6040516100c8929190610d40565b60405180910390f35b3480156100dd57600080fd5b506100f860048036036100f39190810190610baa565b610373565b6040516101059190610d1e565b60405180910390f35b34801561011a57600080fd5b5061013560048036036101309190810190610b3e565b610438565b6040516101429190610d77565b60405180910390f35b34801561015757600080fd5b5061016061052d565b005b34801561016e57600080fd5b5061017761062f565b6040516101849190610d03565b60405180910390f35b34801561019957600080fd5b506101a2610654565b6040516101af9190610d77565b60405180910390f35b6101d260048036036101cd9190810190610bd3565b610661565b005b3480156101e057600080fd5b506101fb60048036036101f69190810190610b15565b6106f4565b005b6060806000806060600060018781548110151561021657fe5b90600052602060002090600202019350836001018054905092508260405190808252806020026020018201604052801561025f5781602001602082028038833980820191505090505b509150600090505b828110156102c557836001018181548110151561028057fe5b90600052602060002090600202016000015482828151811015156102a057fe5b9060200190602002019060001916908160001916815250508080600101915050610267565b8360000182818054600181600116156101000203166002900480601f01602080910402602001604051908101604052809291908181526020018280546001816001161561010002031660029004801561035f5780601f106103345761010080835404028352916020019161035f565b820191906000526020600020905b81548152906001019060200180831161034257829003601f168201915b505050505091509550955050505050915091565b60018181548110151561038257fe5b9060005260206000209060020201600091509050806000018054600181600116156101000203166002900480601f01602080910402602001604051908101604052809291908181526020018280546001816001161561010002031660029004801561042e5780601f106104035761010080835404028352916020019161042e565b820191906000526020600020905b81548152906001019060200180831161041157829003601f168201915b5050505050905081565b600080600080600060018054905093506001805480919060010161045c9190610855565b5060018481548110151561046c57fe5b9060005260206000209060020201925086836000019080519060200190610494929190610887565b5085519150600090505b81811015610520578260010160206040519081016040528088848151811015156104c457fe5b90602001906020020151600019168152509080600181540180825580915050906001820390600052602060002090600202016000909192909190915060008201518160000190600019169055505050808060010191505061049e565b8394505050505092915050565b6000809054906101000a900473ffffffffffffffffffffffffffffffffffffffff1673ffffffffffffffffffffffffffffffffffffffff163373ffffffffffffffffffffffffffffffffffffffff1614151561058857600080fd5b6000809054906101000a900473ffffffffffffffffffffffffffffffffffffffff1673ffffffffffffffffffffffffffffffffffffffff167ff8df31144d9c2f0f6b59d69b8b98abd5459d07f2742c4df920b25aae33c6482060405160405180910390a260008060006101000a81548173ffffffffffffffffffffffffffffffffffffffff021916908373ffffffffffffffffffffffffffffffffffffffff160217905550565b6000809054906101000a900473ffffffffffffffffffffffffffffffffffffffff1681565b6000600180549050905090565b600060018381548110151561067257fe5b90600052602060002090600202016001018281548110151561069057fe5b90600052602060002090600202019050348160010160003373ffffffffffffffffffffffffffffffffffffffff1673ffffffffffffffffffffffffffffffffffffffff16815260200190815260200160002060008282540192505081905550505050565b6000809054906101000a900473ffffffffffffffffffffffffffffffffffffffff1673ffffffffffffffffffffffffffffffffffffffff163373ffffffffffffffffffffffffffffffffffffffff1614151561074f57600080fd5b6107588161075b565b50565b600073ffffffffffffffffffffffffffffffffffffffff168173ffffffffffffffffffffffffffffffffffffffff161415151561079757600080fd5b8073ffffffffffffffffffffffffffffffffffffffff166000809054906101000a900473ffffffffffffffffffffffffffffffffffffffff1673ffffffffffffffffffffffffffffffffffffffff167f8be0079c531659141344cd1fd0a4f28419497f9722a3daafe3b4186f6b6457e060405160405180910390a3806000806101000a81548173ffffffffffffffffffffffffffffffffffffffff021916908373ffffffffffffffffffffffffffffffffffffffff16021790555050565b815481835581811115610882576002028160020283600052602060002091820191016108819190610907565b5b505050565b828054600181600116156101000203166002900490600052602060002090601f016020900481019282601f106108c857805160ff19168380011785556108f6565b828001600101855582156108f6579182015b828111156108f55782518255916020019190600101906108da565b5b5090506109039190610946565b5090565b61094391905b8082111561093f5760008082016000610926919061096b565b60018201600061093691906109b3565b5060020161090d565b5090565b90565b61096891905b8082111561096457600081600090555060010161094c565b5090565b90565b50805460018160011615610100020316600290046000825580601f1061099157506109b0565b601f0160209004906000526020600020908101906109af9190610946565b5b50565b50805460008255600202906000526020600020908101906109d491906109d7565b50565b6109fb91905b808211156109f757600080820160009055506002016109dd565b5090565b90565b6000610a0a8235610e82565b905092915050565b600082601f8301121515610a2557600080fd5b8135610a38610a3382610dbf565b610d92565b91508181835260208401935060208101905083856020840282011115610a5d57600080fd5b60005b83811015610a8d5781610a738882610a97565b845260208401935060208301925050600181019050610a60565b5050505092915050565b6000610aa38235610ea2565b905092915050565b600082601f8301121515610abe57600080fd5b8135610ad1610acc82610de7565b610d92565b91508082526020830160208301858383011115610aed57600080fd5b610af8838284610eb6565b50505092915050565b6000610b0d8235610eac565b905092915050565b600060208284031215610b2757600080fd5b6000610b35848285016109fe565b91505092915050565b60008060408385031215610b5157600080fd5b600083013567ffffffffffffffff811115610b6b57600080fd5b610b7785828601610aab565b925050602083013567ffffffffffffffff811115610b9457600080fd5b610ba085828601610a12565b9150509250929050565b600060208284031215610bbc57600080fd5b6000610bca84828501610b01565b91505092915050565b60008060408385031215610be657600080fd5b6000610bf485828601610b01565b9250506020610c0585828601610b01565b9150509250929050565b610c1881610e4e565b82525050565b6000610c2982610e20565b808452602084019350610c3b83610e13565b60005b82811015610c6d57610c51868351610c79565b610c5a82610e41565b9150602086019550600181019050610c3e565b50849250505092915050565b610c8281610e6e565b82525050565b6000610c9382610e36565b808452610ca7816020860160208601610ec5565b610cb081610ef8565b602085010191505092915050565b6000610cc982610e2b565b808452610cdd816020860160208601610ec5565b610ce681610ef8565b602085010191505092915050565b610cfd81610e78565b82525050565b6000602082019050610d186000830184610c0f565b92915050565b60006020820190508181036000830152610d388184610cbe565b905092915050565b60006040820190508181036000830152610d5a8185610c88565b90508181036020830152610d6e8184610c1e565b90509392505050565b6000602082019050610d8c6000830184610cf4565b92915050565b6000604051905081810181811067ffffffffffffffff82111715610db557600080fd5b8060405250919050565b600067ffffffffffffffff821115610dd657600080fd5b602082029050602081019050919050565b600067ffffffffffffffff821115610dfe57600080fd5b601f19601f8301169050602081019050919050565b6000602082019050919050565b600081519050919050565b600081519050919050565b600081519050919050565b6000602082019050919050565b600073ffffffffffffffffffffffffffffffffffffffff82169050919050565b6000819050919050565b6000819050919050565b600073ffffffffffffffffffffffffffffffffffffffff82169050919050565b6000819050919050565b6000819050919050565b82818337600083830152505050565b60005b83811015610ee3578082015181840152602081019050610ec8565b83811115610ef2576000848401525b50505050565b6000601f19601f83011690509190505600a265627a7a72305820717f3f24a5e28fe4fcee7fc6a2361429ff7d8d86abb70d6bf192fde1d7c860a16c6578706572696d656e74616cf50037",
  "source": "pragma solidity ^0.4.24;\npragma experimental ABIEncoderV2;\n\nimport './Ownable.sol';\n\ncontract Beth is Ownable {\n  struct Option {\n    bytes32 description;\n    mapping(address => uint) values;\n  }\n\n  struct Bet {\n    string description;\n    Option[] options;\n  }\n\n  Bet[] public bets;\n\n  // function (<parameter types>) {internal|external} [pure|constant|view|payable] [returns (<return types>)]\n\n  function betOnOption(uint bet_id, uint option_id) public payable {\n    Option storage o = bets[bet_id].options[option_id];\n    o.values[msg.sender] += msg.value;\n  }\n\n  function createBet(string description, bytes32[] option_descriptions) public returns(uint) {\n    uint bet_id= bets.length;\n    bets.length++;\n    Bet storage bet = bets[bet_id];\n\n    bet.description = description;\n\n    uint arrayLength = option_descriptions.length;\n    for (uint i=0; i < arrayLength; i++) {\n      bet.options.push(Option(option_descriptions[i]));\n    }\n\n    return bet_id;\n  }\n\n  function getBet(uint index) public constant returns(string, bytes32[]) {\n    Bet storage bet = bets[index];\n\n    uint arrayLength = bet.options.length;\n    bytes32[] memory options = new bytes32[](arrayLength);\n\n    for (uint i=0; i<arrayLength; i++) {\n      options[i] = bet.options[i].description;\n    }\n    return (bet.description, options);\n  }\n\n  function getBetCount() public constant returns(uint) {\n    return bets.length;\n  }\n}\n",
  "sourcePath": "/Users/wojciechko/dev/react-app/contracts/Beth.sol",
  "compiler": {
    "name": "solc",
    "version": "0.4.24+commit.e67f0147.Emscripten.clang"
  },
  "schemaVersion": "2.0.1",
  "updatedAt": "2018-09-02T21:13:37.643Z"
}