{
  "contractName": "Beth",
  "abi": [
    {
      "inputs": [],
      "payable": false,
      "stateMutability": "nonpayable",
      "type": "constructor"
    },
    {
      "constant": true,
      "inputs": [],
      "name": "getOwner",
      "outputs": [
        {
          "name": "",
          "type": "address"
        }
      ],
      "payable": false,
      "stateMutability": "view",
      "type": "function"
    }
  ],
  "bytecode": "0x608060405234801561001057600080fd5b50336000806101000a81548173ffffffffffffffffffffffffffffffffffffffff021916908373ffffffffffffffffffffffffffffffffffffffff16021790555060ed8061005f6000396000f300608060405260043610603f576000357c0100000000000000000000000000000000000000000000000000000000900463ffffffff168063893d20e8146044575b600080fd5b348015604f57600080fd5b5060566098565b604051808273ffffffffffffffffffffffffffffffffffffffff1673ffffffffffffffffffffffffffffffffffffffff16815260200191505060405180910390f35b60008060009054906101000a900473ffffffffffffffffffffffffffffffffffffffff169050905600a165627a7a723058206948855bb5cd1708fae3fdf48312974d21a2b30323ec1f9f34718ffb8619c5b20029",
  "source": "pragma solidity ^0.4.23;\n\ncontract Beth {\n    address owner;\n\n    constructor() public {\n      owner = msg.sender;\n    }\n\n    function getOwner() public view returns (address) {\n        return owner;\n    }\n}\n",
  "sourcePath": "/Users/wojciechko/dev/react-app/contracts/Beth.sol",
  "compiler": {
    "name": "solc",
    "version": "0.4.24+commit.e67f0147.Emscripten.clang"
  },
  "schemaVersion": "2.0.1",
  "updatedAt": "2018-07-12T21:50:57.325Z"
}